{
  "_format": "hh-sol-artifact-1",
  "contractName": "BitcoinBrothers",
  "sourceName": "contracts/BitcoinBrothers.sol",
  "abi": [
    {
      "inputs": [],
      "stateMutability": "nonpayable",
      "type": "constructor"
    },
    {
      "anonymous": false,
      "inputs": [
        {
          "indexed": true,
          "internalType": "address",
          "name": "owner",
          "type": "address"
        },
        {
          "indexed": true,
          "internalType": "address",
          "name": "approved",
          "type": "address"
        },
        {
          "indexed": true,
          "internalType": "uint256",
          "name": "tokenId",
          "type": "uint256"
        }
      ],
      "name": "Approval",
      "type": "event"
    },
    {
      "anonymous": false,
      "inputs": [
        {
          "indexed": true,
          "internalType": "address",
          "name": "owner",
          "type": "address"
        },
        {
          "indexed": true,
          "internalType": "address",
          "name": "operator",
          "type": "address"
        },
        {
          "indexed": false,
          "internalType": "bool",
          "name": "approved",
          "type": "bool"
        }
      ],
      "name": "ApprovalForAll",
      "type": "event"
    },
    {
      "anonymous": false,
      "inputs": [
        {
          "indexed": true,
          "internalType": "address",
          "name": "previousOwner",
          "type": "address"
        },
        {
          "indexed": true,
          "internalType": "address",
          "name": "newOwner",
          "type": "address"
        }
      ],
      "name": "OwnershipTransferred",
      "type": "event"
    },
    {
      "anonymous": false,
      "inputs": [
        {
          "indexed": true,
          "internalType": "address",
          "name": "from",
          "type": "address"
        },
        {
          "indexed": true,
          "internalType": "address",
          "name": "to",
          "type": "address"
        },
        {
          "indexed": true,
          "internalType": "uint256",
          "name": "tokenId",
          "type": "uint256"
        }
      ],
      "name": "Transfer",
      "type": "event"
    },
    {
      "inputs": [],
      "name": "PRICE_PER_TOKEN",
      "outputs": [
        {
          "internalType": "uint256",
          "name": "",
          "type": "uint256"
        }
      ],
      "stateMutability": "view",
      "type": "function"
    },
    {
      "inputs": [
        {
          "internalType": "address",
          "name": "to",
          "type": "address"
        },
        {
          "internalType": "uint256",
          "name": "tokenId",
          "type": "uint256"
        }
      ],
      "name": "approve",
      "outputs": [],
      "stateMutability": "nonpayable",
      "type": "function"
    },
    {
      "inputs": [
        {
          "internalType": "address",
          "name": "owner",
          "type": "address"
        }
      ],
      "name": "balanceOf",
      "outputs": [
        {
          "internalType": "uint256",
          "name": "",
          "type": "uint256"
        }
      ],
      "stateMutability": "view",
      "type": "function"
    },
    {
      "inputs": [
        {
          "internalType": "uint256",
          "name": "tokenId",
          "type": "uint256"
        }
      ],
      "name": "getApproved",
      "outputs": [
        {
          "internalType": "address",
          "name": "",
          "type": "address"
        }
      ],
      "stateMutability": "view",
      "type": "function"
    },
    {
      "inputs": [],
      "name": "isAllowListActive",
      "outputs": [
        {
          "internalType": "bool",
          "name": "",
          "type": "bool"
        }
      ],
      "stateMutability": "view",
      "type": "function"
    },
    {
      "inputs": [
        {
          "internalType": "address",
          "name": "owner",
          "type": "address"
        },
        {
          "internalType": "address",
          "name": "operator",
          "type": "address"
        }
      ],
      "name": "isApprovedForAll",
      "outputs": [
        {
          "internalType": "bool",
          "name": "",
          "type": "bool"
        }
      ],
      "stateMutability": "view",
      "type": "function"
    },
    {
      "inputs": [],
      "name": "maxSupply",
      "outputs": [
        {
          "internalType": "uint256",
          "name": "",
          "type": "uint256"
        }
      ],
      "stateMutability": "view",
      "type": "function"
    },
    {
      "inputs": [
        {
          "internalType": "uint8",
          "name": "numberOfTokens",
          "type": "uint8"
        }
      ],
      "name": "mintAllowList",
      "outputs": [],
      "stateMutability": "payable",
      "type": "function"
    },
    {
      "inputs": [
        {
          "internalType": "address",
          "name": "recipient",
          "type": "address"
        },
        {
          "internalType": "string",
          "name": "tokenURI",
          "type": "string"
        }
      ],
      "name": "mintNFT",
      "outputs": [
        {
          "internalType": "uint256",
          "name": "",
          "type": "uint256"
        }
      ],
      "stateMutability": "nonpayable",
      "type": "function"
    },
    {
      "inputs": [],
      "name": "name",
      "outputs": [
        {
          "internalType": "string",
          "name": "",
          "type": "string"
        }
      ],
      "stateMutability": "view",
      "type": "function"
    },
    {
      "inputs": [
        {
          "internalType": "address",
          "name": "addr",
          "type": "address"
        }
      ],
      "name": "numAvailableToMint",
      "outputs": [
        {
          "internalType": "uint8",
          "name": "",
          "type": "uint8"
        }
      ],
      "stateMutability": "view",
      "type": "function"
    },
    {
      "inputs": [],
      "name": "owner",
      "outputs": [
        {
          "internalType": "address",
          "name": "",
          "type": "address"
        }
      ],
      "stateMutability": "view",
      "type": "function"
    },
    {
      "inputs": [
        {
          "internalType": "uint256",
          "name": "tokenId",
          "type": "uint256"
        }
      ],
      "name": "ownerOf",
      "outputs": [
        {
          "internalType": "address",
          "name": "",
          "type": "address"
        }
      ],
      "stateMutability": "view",
      "type": "function"
    },
    {
      "inputs": [],
      "name": "renounceOwnership",
      "outputs": [],
      "stateMutability": "nonpayable",
      "type": "function"
    },
    {
      "inputs": [
        {
          "internalType": "address",
          "name": "from",
          "type": "address"
        },
        {
          "internalType": "address",
          "name": "to",
          "type": "address"
        },
        {
          "internalType": "uint256",
          "name": "tokenId",
          "type": "uint256"
        }
      ],
      "name": "safeTransferFrom",
      "outputs": [],
      "stateMutability": "nonpayable",
      "type": "function"
    },
    {
      "inputs": [
        {
          "internalType": "address",
          "name": "from",
          "type": "address"
        },
        {
          "internalType": "address",
          "name": "to",
          "type": "address"
        },
        {
          "internalType": "uint256",
          "name": "tokenId",
          "type": "uint256"
        },
        {
          "internalType": "bytes",
          "name": "_data",
          "type": "bytes"
        }
      ],
      "name": "safeTransferFrom",
      "outputs": [],
      "stateMutability": "nonpayable",
      "type": "function"
    },
    {
      "inputs": [
        {
          "internalType": "address[]",
          "name": "addresses",
          "type": "address[]"
        },
        {
          "internalType": "uint8",
          "name": "numAllowedToMint",
          "type": "uint8"
        }
      ],
      "name": "setAllowList",
      "outputs": [],
      "stateMutability": "nonpayable",
      "type": "function"
    },
    {
      "inputs": [
        {
          "internalType": "address",
          "name": "operator",
          "type": "address"
        },
        {
          "internalType": "bool",
          "name": "approved",
          "type": "bool"
        }
      ],
      "name": "setApprovalForAll",
      "outputs": [],
      "stateMutability": "nonpayable",
      "type": "function"
    },
    {
      "inputs": [
        {
          "internalType": "bool",
          "name": "_isAllowListActive",
          "type": "bool"
        }
      ],
      "name": "setIsAllowListActive",
      "outputs": [],
      "stateMutability": "nonpayable",
      "type": "function"
    },
    {
      "inputs": [
        {
          "internalType": "bytes4",
          "name": "interfaceId",
          "type": "bytes4"
        }
      ],
      "name": "supportsInterface",
      "outputs": [
        {
          "internalType": "bool",
          "name": "",
          "type": "bool"
        }
      ],
      "stateMutability": "view",
      "type": "function"
    },
    {
      "inputs": [],
      "name": "symbol",
      "outputs": [
        {
          "internalType": "string",
          "name": "",
          "type": "string"
        }
      ],
      "stateMutability": "view",
      "type": "function"
    },
    {
      "inputs": [
        {
          "internalType": "uint256",
          "name": "index",
          "type": "uint256"
        }
      ],
      "name": "tokenByIndex",
      "outputs": [
        {
          "internalType": "uint256",
          "name": "",
          "type": "uint256"
        }
      ],
      "stateMutability": "view",
      "type": "function"
    },
    {
      "inputs": [
        {
          "internalType": "address",
          "name": "owner",
          "type": "address"
        },
        {
          "internalType": "uint256",
          "name": "index",
          "type": "uint256"
        }
      ],
      "name": "tokenOfOwnerByIndex",
      "outputs": [
        {
          "internalType": "uint256",
          "name": "",
          "type": "uint256"
        }
      ],
      "stateMutability": "view",
      "type": "function"
    },
    {
      "inputs": [
        {
          "internalType": "uint256",
          "name": "tokenId",
          "type": "uint256"
        }
      ],
      "name": "tokenURI",
      "outputs": [
        {
          "internalType": "string",
          "name": "",
          "type": "string"
        }
      ],
      "stateMutability": "view",
      "type": "function"
    },
    {
      "inputs": [],
      "name": "totalSupply",
      "outputs": [
        {
          "internalType": "uint256",
          "name": "",
          "type": "uint256"
        }
      ],
      "stateMutability": "view",
      "type": "function"
    },
    {
      "inputs": [
        {
          "internalType": "address",
          "name": "from",
          "type": "address"
        },
        {
          "internalType": "address",
          "name": "to",
          "type": "address"
        },
        {
          "internalType": "uint256",
          "name": "tokenId",
          "type": "uint256"
        }
      ],
      "name": "transferFrom",
      "outputs": [],
      "stateMutability": "nonpayable",
      "type": "function"
    },
    {
      "inputs": [
        {
          "internalType": "address",
          "name": "newOwner",
          "type": "address"
        }
      ],
      "name": "transferOwnership",
      "outputs": [],
      "stateMutability": "nonpayable",
      "type": "function"
    }
  ],
  "bytecode": "0x6080604052600d805460ff191690553480156200001b57600080fd5b50604080518082018252600f81526e426974636f696e42726f746865727360881b6020808301918252835180850190945260038452622121a160e91b9084015281519192916200006e91600091620000fd565b50805162000084906001906020840190620000fd565b505050620000a16200009b620000a760201b60201c565b620000ab565b620001e0565b3390565b600b80546001600160a01b038381166001600160a01b0319831681179093556040519116919082907f8be0079c531659141344cd1fd0a4f28419497f9722a3daafe3b4186f6b6457e090600090a35050565b8280546200010b90620001a3565b90600052602060002090601f0160209004810192826200012f57600085556200017a565b82601f106200014a57805160ff19168380011785556200017a565b828001600101855582156200017a579182015b828111156200017a5782518255916020019190600101906200015d565b50620001889291506200018c565b5090565b5b808211156200018857600081556001016200018d565b600181811c90821680620001b857607f821691505b60208210811415620001da57634e487b7160e01b600052602260045260246000fd5b50919050565b6123db80620001f06000396000f3fe60806040526004361061019c5760003560e01c8063718bc4af116100ec578063c04a28361161008a578063ddff5b1c11610064578063ddff5b1c146104ae578063e985e9c5146104c1578063eacabe141461050a578063f2fde38b1461052a57600080fd5b8063c04a28361461042d578063c87b56dd14610478578063d5abeb011461049857600080fd5b80638da5cb5b116100c65780638da5cb5b146103ba57806395d89b41146103d8578063a22cb465146103ed578063b88d4fde1461040d57600080fd5b8063718bc4af146103605780638295784d14610380578063833b9499146103a057600080fd5b806329fc6bae116101595780634f6ccce7116101335780634f6ccce7146102eb5780636352211e1461030b57806370a082311461032b578063715018a61461034b57600080fd5b806329fc6bae146102915780632f745c59146102ab57806342842e0e146102cb57600080fd5b806301ffc9a7146101a157806306fdde03146101d6578063081812fc146101f8578063095ea7b31461023057806318160ddd1461025257806323b872dd14610271575b600080fd5b3480156101ad57600080fd5b506101c16101bc366004611d1d565b61054a565b60405190151581526020015b60405180910390f35b3480156101e257600080fd5b506101eb610575565b6040516101cd9190611d92565b34801561020457600080fd5b50610218610213366004611da5565b610607565b6040516001600160a01b0390911681526020016101cd565b34801561023c57600080fd5b5061025061024b366004611dda565b610694565b005b34801561025e57600080fd5b506009545b6040519081526020016101cd565b34801561027d57600080fd5b5061025061028c366004611e04565b6107aa565b34801561029d57600080fd5b50600d546101c19060ff1681565b3480156102b757600080fd5b506102636102c6366004611dda565b6107db565b3480156102d757600080fd5b506102506102e6366004611e04565b610871565b3480156102f757600080fd5b50610263610306366004611da5565b61088c565b34801561031757600080fd5b50610218610326366004611da5565b61091f565b34801561033757600080fd5b50610263610346366004611e40565b610996565b34801561035757600080fd5b50610250610a1d565b34801561036c57600080fd5b5061025061037b366004611e6b565b610a8f565b34801561038c57600080fd5b5061025061039b366004611e97565b610acc565b3480156103ac57600080fd5b50610263655af3107a400081565b3480156103c657600080fd5b50600b546001600160a01b0316610218565b3480156103e457600080fd5b506101eb610b70565b3480156103f957600080fd5b50610250610408366004611f1b565b610b7f565b34801561041957600080fd5b50610250610428366004611fda565b610b8e565b34801561043957600080fd5b50610466610448366004611e40565b6001600160a01b03166000908152600e602052604090205460ff1690565b60405160ff90911681526020016101cd565b34801561048457600080fd5b506101eb610493366004611da5565b610bc0565b3480156104a457600080fd5b5061026361271081565b6102506104bc366004612056565b610bcb565b3480156104cd57600080fd5b506101c16104dc366004612071565b6001600160a01b03918216600090815260056020908152604080832093909416825291909152205460ff1690565b34801561051657600080fd5b5061026361052536600461209b565b610dc9565b34801561053657600080fd5b50610250610545366004611e40565b610e42565b600063152a902d60e11b6001600160e01b03198316148061056f575061056f82610edd565b92915050565b606060008054610584906120fd565b80601f01602080910402602001604051908101604052809291908181526020018280546105b0906120fd565b80156105fd5780601f106105d2576101008083540402835291602001916105fd565b820191906000526020600020905b8154815290600101906020018083116105e057829003601f168201915b5050505050905090565b600061061282610f02565b6106785760405162461bcd60e51b815260206004820152602c60248201527f4552433732313a20617070726f76656420717565727920666f72206e6f6e657860448201526b34b9ba32b73a103a37b5b2b760a11b60648201526084015b60405180910390fd5b506000908152600460205260409020546001600160a01b031690565b600061069f8261091f565b9050806001600160a01b0316836001600160a01b0316141561070d5760405162461bcd60e51b815260206004820152602160248201527f4552433732313a20617070726f76616c20746f2063757272656e74206f776e656044820152603960f91b606482015260840161066f565b336001600160a01b0382161480610729575061072981336104dc565b61079b5760405162461bcd60e51b815260206004820152603860248201527f4552433732313a20617070726f76652063616c6c6572206973206e6f74206f7760448201527f6e6572206e6f7220617070726f76656420666f7220616c6c0000000000000000606482015260840161066f565b6107a58383610f1f565b505050565b6107b43382610f8d565b6107d05760405162461bcd60e51b815260040161066f90612138565b6107a5838383611077565b60006107e683610996565b82106108485760405162461bcd60e51b815260206004820152602b60248201527f455243373231456e756d657261626c653a206f776e657220696e646578206f7560448201526a74206f6620626f756e647360a81b606482015260840161066f565b506001600160a01b03919091166000908152600760209081526040808320938352929052205490565b6107a583838360405180602001604052806000815250610b8e565b600061089760095490565b82106108fa5760405162461bcd60e51b815260206004820152602c60248201527f455243373231456e756d657261626c653a20676c6f62616c20696e646578206f60448201526b7574206f6620626f756e647360a01b606482015260840161066f565b6009828154811061090d5761090d612189565b90600052602060002001549050919050565b6000818152600260205260408120546001600160a01b03168061056f5760405162461bcd60e51b815260206004820152602960248201527f4552433732313a206f776e657220717565727920666f72206e6f6e657869737460448201526832b73a103a37b5b2b760b91b606482015260840161066f565b60006001600160a01b038216610a015760405162461bcd60e51b815260206004820152602a60248201527f4552433732313a2062616c616e636520717565727920666f7220746865207a65604482015269726f206164647265737360b01b606482015260840161066f565b506001600160a01b031660009081526003602052604090205490565b600b546001600160a01b03163314610a475760405162461bcd60e51b815260040161066f9061219f565b60405162461bcd60e51b815260206004820152601c60248201527f63616e27742072656e6f756e63654f776e657273686970206865726500000000604482015260640161066f565b600b546001600160a01b03163314610ab95760405162461bcd60e51b815260040161066f9061219f565b600d805460ff1916911515919091179055565b600b546001600160a01b03163314610af65760405162461bcd60e51b815260040161066f9061219f565b60005b82811015610b6a5781600e6000868685818110610b1857610b18612189565b9050602002016020810190610b2d9190611e40565b6001600160a01b031681526020810191909152604001600020805460ff191660ff9290921691909117905580610b62816121ea565b915050610af9565b50505050565b606060018054610584906120fd565b610b8a33838361121e565b5050565b610b983383610f8d565b610bb45760405162461bcd60e51b815260040161066f90612138565b610b6a848484846112ed565b606061056f82611320565b6000610bd660095490565b600d5490915060ff16610c2b5760405162461bcd60e51b815260206004820152601860248201527f416c6c6f77206c697374206973206e6f74206163746976650000000000000000604482015260640161066f565b336000908152600e602052604090205460ff9081169083161115610c9c5760405162461bcd60e51b815260206004820152602260248201527f4578636565646564206d617820617661696c61626c6520746f20707572636861604482015261736560f01b606482015260840161066f565b612710610cac60ff841683612205565b1115610cfa5760405162461bcd60e51b815260206004820181905260248201527f507572636861736520776f756c6420657863656564206d617820746f6b656e73604482015260640161066f565b34610d0e60ff8416655af3107a400061221d565b1115610d5c5760405162461bcd60e51b815260206004820152601f60248201527f45746865722076616c75652073656e74206973206e6f7420636f727265637400604482015260640161066f565b336000908152600e602052604081208054849290610d7e90849060ff1661223c565b92506101000a81548160ff021916908360ff16021790555060005b8260ff168110156107a557610db733610db28385612205565b61148f565b80610dc1816121ea565b915050610d99565b600b546000906001600160a01b03163314610df65760405162461bcd60e51b815260040161066f9061219f565b612710610e0260095490565b10610e0c57600080fd5b610e1a600c80546001019055565b6000610e25600c5490565b9050610e3184826114a9565b610e3b81846115e8565b9392505050565b600b546001600160a01b03163314610e6c5760405162461bcd60e51b815260040161066f9061219f565b6001600160a01b038116610ed15760405162461bcd60e51b815260206004820152602660248201527f4f776e61626c653a206e6577206f776e657220697320746865207a65726f206160448201526564647265737360d01b606482015260840161066f565b610eda81611673565b50565b60006001600160e01b0319821663780e9d6360e01b148061056f575061056f826116c5565b6000908152600260205260409020546001600160a01b0316151590565b600081815260046020526040902080546001600160a01b0319166001600160a01b0384169081179091558190610f548261091f565b6001600160a01b03167f8c5be1e5ebec7d5bd14f71427d1e84f3dd0314c0f7b2291e5b200ac8c7c3b92560405160405180910390a45050565b6000610f9882610f02565b610ff95760405162461bcd60e51b815260206004820152602c60248201527f4552433732313a206f70657261746f7220717565727920666f72206e6f6e657860448201526b34b9ba32b73a103a37b5b2b760a11b606482015260840161066f565b60006110048361091f565b9050806001600160a01b0316846001600160a01b0316148061104b57506001600160a01b0380821660009081526005602090815260408083209388168352929052205460ff165b8061106f5750836001600160a01b031661106484610607565b6001600160a01b0316145b949350505050565b826001600160a01b031661108a8261091f565b6001600160a01b0316146110ee5760405162461bcd60e51b815260206004820152602560248201527f4552433732313a207472616e736665722066726f6d20696e636f72726563742060448201526437bbb732b960d91b606482015260840161066f565b6001600160a01b0382166111505760405162461bcd60e51b8152602060048201526024808201527f4552433732313a207472616e7366657220746f20746865207a65726f206164646044820152637265737360e01b606482015260840161066f565b61115b838383611715565b611166600082610f1f565b6001600160a01b038316600090815260036020526040812080546001929061118f90849061225f565b90915550506001600160a01b03821660009081526003602052604081208054600192906111bd908490612205565b909155505060008181526002602052604080822080546001600160a01b0319166001600160a01b0386811691821790925591518493918716917fddf252ad1be2c89b69c2b068fc378daa952ba7f163c4a11628f55a4df523b3ef91a4505050565b816001600160a01b0316836001600160a01b031614156112805760405162461bcd60e51b815260206004820152601960248201527f4552433732313a20617070726f766520746f2063616c6c657200000000000000604482015260640161066f565b6001600160a01b03838116600081815260056020908152604080832094871680845294825291829020805460ff191686151590811790915591519182527f17307eab39ab6107e8899845ad3d59bd9653f200f220920489ca2b5937696c31910160405180910390a3505050565b6112f8848484611077565b61130484848484611720565b610b6a5760405162461bcd60e51b815260040161066f90612276565b606061132b82610f02565b6113915760405162461bcd60e51b815260206004820152603160248201527f45524337323155524953746f726167653a2055524920717565727920666f72206044820152703737b732bc34b9ba32b73a103a37b5b2b760791b606482015260840161066f565b600082815260066020526040812080546113aa906120fd565b80601f01602080910402602001604051908101604052809291908181526020018280546113d6906120fd565b80156114235780601f106113f857610100808354040283529160200191611423565b820191906000526020600020905b81548152906001019060200180831161140657829003601f168201915b50505050509050600061144160408051602081019091526000815290565b9050805160001415611454575092915050565b81511561148657808260405160200161146e9291906122c8565b60405160208183030381529060405292505050919050565b61106f8461181e565b610b8a8282604051806020016040528060008152506118f5565b6001600160a01b0382166114ff5760405162461bcd60e51b815260206004820181905260248201527f4552433732313a206d696e7420746f20746865207a65726f2061646472657373604482015260640161066f565b61150881610f02565b156115555760405162461bcd60e51b815260206004820152601c60248201527f4552433732313a20746f6b656e20616c7265616479206d696e74656400000000604482015260640161066f565b61156160008383611715565b6001600160a01b038216600090815260036020526040812080546001929061158a908490612205565b909155505060008181526002602052604080822080546001600160a01b0319166001600160a01b03861690811790915590518392907fddf252ad1be2c89b69c2b068fc378daa952ba7f163c4a11628f55a4df523b3ef908290a45050565b6115f182610f02565b6116545760405162461bcd60e51b815260206004820152602e60248201527f45524337323155524953746f726167653a2055524920736574206f66206e6f6e60448201526d32bc34b9ba32b73a103a37b5b2b760911b606482015260840161066f565b600082815260066020908152604090912082516107a592840190611c6e565b600b80546001600160a01b038381166001600160a01b0319831681179093556040519116919082907f8be0079c531659141344cd1fd0a4f28419497f9722a3daafe3b4186f6b6457e090600090a35050565b60006001600160e01b031982166380ac58cd60e01b14806116f657506001600160e01b03198216635b5e139f60e01b145b8061056f57506301ffc9a760e01b6001600160e01b031983161461056f565b6107a5838383611928565b60006001600160a01b0384163b1561181357604051630a85bd0160e11b81526001600160a01b0385169063150b7a02906117649033908990889088906004016122f7565b6020604051808303816000875af192505050801561179f575060408051601f3d908101601f1916820190925261179c91810190612334565b60015b6117f9573d8080156117cd576040519150601f19603f3d011682016040523d82523d6000602084013e6117d2565b606091505b5080516117f15760405162461bcd60e51b815260040161066f90612276565b805181602001fd5b6001600160e01b031916630a85bd0160e11b14905061106f565b506001949350505050565b606061182982610f02565b61188d5760405162461bcd60e51b815260206004820152602f60248201527f4552433732314d657461646174613a2055524920717565727920666f72206e6f60448201526e3732bc34b9ba32b73a103a37b5b2b760891b606482015260840161066f565b60006118a460408051602081019091526000815290565b905060008151116118c45760405180602001604052806000815250610e3b565b806118ce846119e0565b6040516020016118df9291906122c8565b6040516020818303038152906040529392505050565b6118ff83836114a9565b61190c6000848484611720565b6107a55760405162461bcd60e51b815260040161066f90612276565b6001600160a01b0383166119835761197e81600980546000838152600a60205260408120829055600182018355919091527f6e1540171b6c0c960b71a7020d9f60077f6af931a8bbf590da0223dacf75c7af0155565b6119a6565b816001600160a01b0316836001600160a01b0316146119a6576119a68382611ade565b6001600160a01b0382166119bd576107a581611b7b565b826001600160a01b0316826001600160a01b0316146107a5576107a58282611c2a565b606081611a045750506040805180820190915260018152600360fc1b602082015290565b8160005b8115611a2e5780611a18816121ea565b9150611a279050600a83612367565b9150611a08565b60008167ffffffffffffffff811115611a4957611a49611f4e565b6040519080825280601f01601f191660200182016040528015611a73576020820181803683370190505b5090505b841561106f57611a8860018361225f565b9150611a95600a8661237b565b611aa0906030612205565b60f81b818381518110611ab557611ab5612189565b60200101906001600160f81b031916908160001a905350611ad7600a86612367565b9450611a77565b60006001611aeb84610996565b611af5919061225f565b600083815260086020526040902054909150808214611b48576001600160a01b03841660009081526007602090815260408083208584528252808320548484528184208190558352600890915290208190555b5060009182526008602090815260408084208490556001600160a01b039094168352600781528383209183525290812055565b600954600090611b8d9060019061225f565b6000838152600a602052604081205460098054939450909284908110611bb557611bb5612189565b906000526020600020015490508060098381548110611bd657611bd6612189565b6000918252602080832090910192909255828152600a90915260408082208490558582528120556009805480611c0e57611c0e61238f565b6001900381819060005260206000200160009055905550505050565b6000611c3583610996565b6001600160a01b039093166000908152600760209081526040808320868452825280832085905593825260089052919091209190915550565b828054611c7a906120fd565b90600052602060002090601f016020900481019282611c9c5760008555611ce2565b82601f10611cb557805160ff1916838001178555611ce2565b82800160010185558215611ce2579182015b82811115611ce2578251825591602001919060010190611cc7565b50611cee929150611cf2565b5090565b5b80821115611cee5760008155600101611cf3565b6001600160e01b031981168114610eda57600080fd5b600060208284031215611d2f57600080fd5b8135610e3b81611d07565b60005b83811015611d55578181015183820152602001611d3d565b83811115610b6a5750506000910152565b60008151808452611d7e816020860160208601611d3a565b601f01601f19169290920160200192915050565b602081526000610e3b6020830184611d66565b600060208284031215611db757600080fd5b5035919050565b80356001600160a01b0381168114611dd557600080fd5b919050565b60008060408385031215611ded57600080fd5b611df683611dbe565b946020939093013593505050565b600080600060608486031215611e1957600080fd5b611e2284611dbe565b9250611e3060208501611dbe565b9150604084013590509250925092565b600060208284031215611e5257600080fd5b610e3b82611dbe565b80358015158114611dd557600080fd5b600060208284031215611e7d57600080fd5b610e3b82611e5b565b803560ff81168114611dd557600080fd5b600080600060408486031215611eac57600080fd5b833567ffffffffffffffff80821115611ec457600080fd5b818601915086601f830112611ed857600080fd5b813581811115611ee757600080fd5b8760208260051b8501011115611efc57600080fd5b602092830195509350611f129186019050611e86565b90509250925092565b60008060408385031215611f2e57600080fd5b611f3783611dbe565b9150611f4560208401611e5b565b90509250929050565b634e487b7160e01b600052604160045260246000fd5b600067ffffffffffffffff80841115611f7f57611f7f611f4e565b604051601f8501601f19908116603f01168101908282118183101715611fa757611fa7611f4e565b81604052809350858152868686011115611fc057600080fd5b858560208301376000602087830101525050509392505050565b60008060008060808587031215611ff057600080fd5b611ff985611dbe565b935061200760208601611dbe565b925060408501359150606085013567ffffffffffffffff81111561202a57600080fd5b8501601f8101871361203b57600080fd5b61204a87823560208401611f64565b91505092959194509250565b60006020828403121561206857600080fd5b610e3b82611e86565b6000806040838503121561208457600080fd5b61208d83611dbe565b9150611f4560208401611dbe565b600080604083850312156120ae57600080fd5b6120b783611dbe565b9150602083013567ffffffffffffffff8111156120d357600080fd5b8301601f810185136120e457600080fd5b6120f385823560208401611f64565b9150509250929050565b600181811c9082168061211157607f821691505b6020821081141561213257634e487b7160e01b600052602260045260246000fd5b50919050565b60208082526031908201527f4552433732313a207472616e736665722063616c6c6572206973206e6f74206f6040820152701ddb995c881b9bdc88185c1c1c9bdd9959607a1b606082015260800190565b634e487b7160e01b600052603260045260246000fd5b6020808252818101527f4f776e61626c653a2063616c6c6572206973206e6f7420746865206f776e6572604082015260600190565b634e487b7160e01b600052601160045260246000fd5b60006000198214156121fe576121fe6121d4565b5060010190565b60008219821115612218576122186121d4565b500190565b6000816000190483118215151615612237576122376121d4565b500290565b600060ff821660ff841680821015612256576122566121d4565b90039392505050565b600082821015612271576122716121d4565b500390565b60208082526032908201527f4552433732313a207472616e7366657220746f206e6f6e20455243373231526560408201527131b2b4bb32b91034b6b83632b6b2b73a32b960711b606082015260800190565b600083516122da818460208801611d3a565b8351908301906122ee818360208801611d3a565b01949350505050565b6001600160a01b038581168252841660208201526040810183905260806060820181905260009061232a90830184611d66565b9695505050505050565b60006020828403121561234657600080fd5b8151610e3b81611d07565b634e487b7160e01b600052601260045260246000fd5b60008261237657612376612351565b500490565b60008261238a5761238a612351565b500690565b634e487b7160e01b600052603160045260246000fdfea2646970667358221220e532825774bae978df1443f24e05b54a07fe8c4ef184af9fa51ee4bd31c3674064736f6c634300080c0033",
  "linkReferences": {},
  "deployedLinkReferences": {}
}