{
  "_format": "hh-sol-artifact-1",
  "contractName": "BCBRoyalty",
  "sourceName": "contracts/BCBRoyalty.sol",
  "abi": [
    {
      "inputs": [
        {
          "internalType": "uint96",
          "name": "_royaltyFeesInBips",
          "type": "uint96"
        },
        {
          "internalType": "string",
          "name": "_contractURI",
          "type": "string"
        }
      ],
      "stateMutability": "nonpayable",
      "type": "constructor"
    },
    {
      "anonymous": false,
      "inputs": [
        {
          "indexed": true,
          "internalType": "address",
          "name": "owner",
          "type": "address"
        },
        {
          "indexed": true,
          "internalType": "address",
          "name": "approved",
          "type": "address"
        },
        {
          "indexed": true,
          "internalType": "uint256",
          "name": "tokenId",
          "type": "uint256"
        }
      ],
      "name": "Approval",
      "type": "event"
    },
    {
      "anonymous": false,
      "inputs": [
        {
          "indexed": true,
          "internalType": "address",
          "name": "owner",
          "type": "address"
        },
        {
          "indexed": true,
          "internalType": "address",
          "name": "operator",
          "type": "address"
        },
        {
          "indexed": false,
          "internalType": "bool",
          "name": "approved",
          "type": "bool"
        }
      ],
      "name": "ApprovalForAll",
      "type": "event"
    },
    {
      "anonymous": false,
      "inputs": [
        {
          "indexed": true,
          "internalType": "address",
          "name": "previousOwner",
          "type": "address"
        },
        {
          "indexed": true,
          "internalType": "address",
          "name": "newOwner",
          "type": "address"
        }
      ],
      "name": "OwnershipTransferred",
      "type": "event"
    },
    {
      "anonymous": false,
      "inputs": [
        {
          "indexed": true,
          "internalType": "address",
          "name": "from",
          "type": "address"
        },
        {
          "indexed": true,
          "internalType": "address",
          "name": "to",
          "type": "address"
        },
        {
          "indexed": true,
          "internalType": "uint256",
          "name": "tokenId",
          "type": "uint256"
        }
      ],
      "name": "Transfer",
      "type": "event"
    },
    {
      "inputs": [
        {
          "internalType": "address",
          "name": "to",
          "type": "address"
        },
        {
          "internalType": "uint256",
          "name": "tokenId",
          "type": "uint256"
        }
      ],
      "name": "approve",
      "outputs": [],
      "stateMutability": "nonpayable",
      "type": "function"
    },
    {
      "inputs": [
        {
          "internalType": "address",
          "name": "owner",
          "type": "address"
        }
      ],
      "name": "balanceOf",
      "outputs": [
        {
          "internalType": "uint256",
          "name": "",
          "type": "uint256"
        }
      ],
      "stateMutability": "view",
      "type": "function"
    },
    {
      "inputs": [],
      "name": "contractURI",
      "outputs": [
        {
          "internalType": "string",
          "name": "",
          "type": "string"
        }
      ],
      "stateMutability": "view",
      "type": "function"
    },
    {
      "inputs": [
        {
          "internalType": "uint256",
          "name": "tokenId",
          "type": "uint256"
        }
      ],
      "name": "getApproved",
      "outputs": [
        {
          "internalType": "address",
          "name": "",
          "type": "address"
        }
      ],
      "stateMutability": "view",
      "type": "function"
    },
    {
      "inputs": [
        {
          "internalType": "address",
          "name": "owner",
          "type": "address"
        },
        {
          "internalType": "address",
          "name": "operator",
          "type": "address"
        }
      ],
      "name": "isApprovedForAll",
      "outputs": [
        {
          "internalType": "bool",
          "name": "",
          "type": "bool"
        }
      ],
      "stateMutability": "view",
      "type": "function"
    },
    {
      "inputs": [],
      "name": "name",
      "outputs": [
        {
          "internalType": "string",
          "name": "",
          "type": "string"
        }
      ],
      "stateMutability": "view",
      "type": "function"
    },
    {
      "inputs": [],
      "name": "owner",
      "outputs": [
        {
          "internalType": "address",
          "name": "",
          "type": "address"
        }
      ],
      "stateMutability": "view",
      "type": "function"
    },
    {
      "inputs": [
        {
          "internalType": "uint256",
          "name": "tokenId",
          "type": "uint256"
        }
      ],
      "name": "ownerOf",
      "outputs": [
        {
          "internalType": "address",
          "name": "",
          "type": "address"
        }
      ],
      "stateMutability": "view",
      "type": "function"
    },
    {
      "inputs": [],
      "name": "renounceOwnership",
      "outputs": [],
      "stateMutability": "nonpayable",
      "type": "function"
    },
    {
      "inputs": [
        {
          "internalType": "uint256",
          "name": "_tokenId",
          "type": "uint256"
        },
        {
          "internalType": "uint256",
          "name": "_salePrice",
          "type": "uint256"
        }
      ],
      "name": "royaltyInfo",
      "outputs": [
        {
          "internalType": "address",
          "name": "",
          "type": "address"
        },
        {
          "internalType": "uint256",
          "name": "",
          "type": "uint256"
        }
      ],
      "stateMutability": "view",
      "type": "function"
    },
    {
      "inputs": [
        {
          "internalType": "address",
          "name": "to",
          "type": "address"
        },
        {
          "internalType": "uint256",
          "name": "tokenId",
          "type": "uint256"
        }
      ],
      "name": "safeMint",
      "outputs": [],
      "stateMutability": "nonpayable",
      "type": "function"
    },
    {
      "inputs": [
        {
          "internalType": "address",
          "name": "from",
          "type": "address"
        },
        {
          "internalType": "address",
          "name": "to",
          "type": "address"
        },
        {
          "internalType": "uint256",
          "name": "tokenId",
          "type": "uint256"
        }
      ],
      "name": "safeTransferFrom",
      "outputs": [],
      "stateMutability": "nonpayable",
      "type": "function"
    },
    {
      "inputs": [
        {
          "internalType": "address",
          "name": "from",
          "type": "address"
        },
        {
          "internalType": "address",
          "name": "to",
          "type": "address"
        },
        {
          "internalType": "uint256",
          "name": "tokenId",
          "type": "uint256"
        },
        {
          "internalType": "bytes",
          "name": "_data",
          "type": "bytes"
        }
      ],
      "name": "safeTransferFrom",
      "outputs": [],
      "stateMutability": "nonpayable",
      "type": "function"
    },
    {
      "inputs": [
        {
          "internalType": "address",
          "name": "operator",
          "type": "address"
        },
        {
          "internalType": "bool",
          "name": "approved",
          "type": "bool"
        }
      ],
      "name": "setApprovalForAll",
      "outputs": [],
      "stateMutability": "nonpayable",
      "type": "function"
    },
    {
      "inputs": [
        {
          "internalType": "string",
          "name": "_contractURI",
          "type": "string"
        }
      ],
      "name": "setContractURI",
      "outputs": [],
      "stateMutability": "nonpayable",
      "type": "function"
    },
    {
      "inputs": [
        {
          "internalType": "address",
          "name": "_receiver",
          "type": "address"
        },
        {
          "internalType": "uint96",
          "name": "_royaltyFeesInBips",
          "type": "uint96"
        }
      ],
      "name": "setRoyaltyInfo",
      "outputs": [],
      "stateMutability": "nonpayable",
      "type": "function"
    },
    {
      "inputs": [
        {
          "internalType": "bytes4",
          "name": "interfaceId",
          "type": "bytes4"
        }
      ],
      "name": "supportsInterface",
      "outputs": [
        {
          "internalType": "bool",
          "name": "",
          "type": "bool"
        }
      ],
      "stateMutability": "view",
      "type": "function"
    },
    {
      "inputs": [],
      "name": "symbol",
      "outputs": [
        {
          "internalType": "string",
          "name": "",
          "type": "string"
        }
      ],
      "stateMutability": "view",
      "type": "function"
    },
    {
      "inputs": [
        {
          "internalType": "uint256",
          "name": "index",
          "type": "uint256"
        }
      ],
      "name": "tokenByIndex",
      "outputs": [
        {
          "internalType": "uint256",
          "name": "",
          "type": "uint256"
        }
      ],
      "stateMutability": "view",
      "type": "function"
    },
    {
      "inputs": [
        {
          "internalType": "address",
          "name": "owner",
          "type": "address"
        },
        {
          "internalType": "uint256",
          "name": "index",
          "type": "uint256"
        }
      ],
      "name": "tokenOfOwnerByIndex",
      "outputs": [
        {
          "internalType": "uint256",
          "name": "",
          "type": "uint256"
        }
      ],
      "stateMutability": "view",
      "type": "function"
    },
    {
      "inputs": [
        {
          "internalType": "uint256",
          "name": "tokenId",
          "type": "uint256"
        }
      ],
      "name": "tokenURI",
      "outputs": [
        {
          "internalType": "string",
          "name": "",
          "type": "string"
        }
      ],
      "stateMutability": "view",
      "type": "function"
    },
    {
      "inputs": [],
      "name": "totalSupply",
      "outputs": [
        {
          "internalType": "uint256",
          "name": "",
          "type": "uint256"
        }
      ],
      "stateMutability": "view",
      "type": "function"
    },
    {
      "inputs": [
        {
          "internalType": "address",
          "name": "from",
          "type": "address"
        },
        {
          "internalType": "address",
          "name": "to",
          "type": "address"
        },
        {
          "internalType": "uint256",
          "name": "tokenId",
          "type": "uint256"
        }
      ],
      "name": "transferFrom",
      "outputs": [],
      "stateMutability": "nonpayable",
      "type": "function"
    },
    {
      "inputs": [
        {
          "internalType": "address",
          "name": "newOwner",
          "type": "address"
        }
      ],
      "name": "transferOwnership",
      "outputs": [],
      "stateMutability": "nonpayable",
      "type": "function"
    }
  ],
  "bytecode": "0x60806040523480156200001157600080fd5b50604051620023a1380380620023a1833981016040819052620000349162000373565b604080518082018252600a815269424342526f79616c747960b01b6020808301918252835180850190945260038452622121a160e91b9084015281519192916200008191600091620002b7565b50805162000097906001906020840190620002b7565b505050620000b4620000ae620000f060201b60201c565b620000f4565b620000d2620000cb600c546001600160a01b031690565b8362000146565b8051620000e790600d906020840190620002b7565b505050620004b0565b3390565b600c80546001600160a01b038381166001600160a01b0319831681179093556040519116919082907f8be0079c531659141344cd1fd0a4f28419497f9722a3daafe3b4186f6b6457e090600090a35050565b600c546001600160a01b03163314620001a65760405162461bcd60e51b815260206004820181905260248201527f4f776e61626c653a2063616c6c6572206973206e6f7420746865206f776e657260448201526064015b60405180910390fd5b620001b28282620001b6565b5050565b6127106001600160601b0382161115620002265760405162461bcd60e51b815260206004820152602a60248201527f455243323938313a20726f79616c7479206665652077696c6c206578636565646044820152692073616c65507269636560b01b60648201526084016200019d565b6001600160a01b0382166200027e5760405162461bcd60e51b815260206004820152601960248201527f455243323938313a20696e76616c69642072656365697665720000000000000060448201526064016200019d565b604080518082019091526001600160a01b039092168083526001600160601b039091166020909201829052600160a01b90910217600a55565b828054620002c59062000473565b90600052602060002090601f016020900481019282620002e9576000855562000334565b82601f106200030457805160ff191683800117855562000334565b8280016001018555821562000334579182015b828111156200033457825182559160200191906001019062000317565b506200034292915062000346565b5090565b5b8082111562000342576000815560010162000347565b634e487b7160e01b600052604160045260246000fd5b600080604083850312156200038757600080fd5b82516001600160601b03811681146200039f57600080fd5b602084810151919350906001600160401b0380821115620003bf57600080fd5b818601915086601f830112620003d457600080fd5b815181811115620003e957620003e96200035d565b604051601f8201601f19908116603f011681019083821181831017156200041457620004146200035d565b8160405282815289868487010111156200042d57600080fd5b600093505b8284101562000451578484018601518185018701529285019262000432565b82841115620004635760008684830101525b8096505050505050509250929050565b600181811c908216806200048857607f821691505b60208210811415620004aa57634e487b7160e01b600052602260045260246000fd5b50919050565b611ee180620004c06000396000f3fe608060405234801561001057600080fd5b50600436106101585760003560e01c806370a08231116100c3578063a22cb4651161007c578063a22cb465146102ea578063b88d4fde146102fd578063c87b56dd14610310578063e8a3d48514610323578063e985e9c51461032b578063f2fde38b1461036757600080fd5b806370a0823114610290578063715018a6146102a35780638da5cb5b146102ab578063938e3d7b146102bc57806395d89b41146102cf578063a1448194146102d757600080fd5b806323b872dd1161011557806323b872dd146101ff5780632a55205a146102125780632f745c591461024457806342842e0e146102575780634f6ccce71461026a5780636352211e1461027d57600080fd5b806301ffc9a71461015d57806302fa7c471461018557806306fdde031461019a578063081812fc146101af578063095ea7b3146101da57806318160ddd146101ed575b600080fd5b61017061016b3660046118bb565b61037a565b60405190151581526020015b60405180910390f35b6101986101933660046118f4565b61038b565b005b6101a26103cc565b60405161017c919061198f565b6101c26101bd3660046119a2565b61045e565b6040516001600160a01b03909116815260200161017c565b6101986101e83660046119bb565b6104f3565b6008545b60405190815260200161017c565b61019861020d3660046119e5565b610609565b610225610220366004611a21565b61063a565b604080516001600160a01b03909316835260208301919091520161017c565b6101f16102523660046119bb565b6106e6565b6101986102653660046119e5565b61077c565b6101f16102783660046119a2565b610797565b6101c261028b3660046119a2565b61082a565b6101f161029e366004611a43565b6108a1565b610198610928565b600c546001600160a01b03166101c2565b6101986102ca366004611a5e565b61095e565b6101a2610994565b6101986102e53660046119bb565b6109a3565b6101986102f8366004611ad0565b6109d7565b61019861030b366004611b17565b6109e2565b6101a261031e3660046119a2565b610a1a565b6101a2610b02565b610170610339366004611bf3565b6001600160a01b03918216600090815260056020908152604080832093909416825291909152205460ff1690565b610198610375366004611a43565b610b90565b600061038582610c2b565b92915050565b600c546001600160a01b031633146103be5760405162461bcd60e51b81526004016103b590611c26565b60405180910390fd5b6103c88282610c50565b5050565b6060600080546103db90611c5b565b80601f016020809104026020016040519081016040528092919081815260200182805461040790611c5b565b80156104545780601f1061042957610100808354040283529160200191610454565b820191906000526020600020905b81548152906001019060200180831161043757829003601f168201915b5050505050905090565b6000818152600260205260408120546001600160a01b03166104d75760405162461bcd60e51b815260206004820152602c60248201527f4552433732313a20617070726f76656420717565727920666f72206e6f6e657860448201526b34b9ba32b73a103a37b5b2b760a11b60648201526084016103b5565b506000908152600460205260409020546001600160a01b031690565b60006104fe8261082a565b9050806001600160a01b0316836001600160a01b0316141561056c5760405162461bcd60e51b815260206004820152602160248201527f4552433732313a20617070726f76616c20746f2063757272656e74206f776e656044820152603960f91b60648201526084016103b5565b336001600160a01b038216148061058857506105888133610339565b6105fa5760405162461bcd60e51b815260206004820152603860248201527f4552433732313a20617070726f76652063616c6c6572206973206e6f74206f7760448201527f6e6572206e6f7220617070726f76656420666f7220616c6c000000000000000060648201526084016103b5565b6106048383610d4d565b505050565b6106133382610dbb565b61062f5760405162461bcd60e51b81526004016103b590611c96565b610604838383610eb2565b6000828152600b602090815260408083208151808301909252546001600160a01b038116808352600160a01b9091046001600160601b03169282019290925282916106af575060408051808201909152600a546001600160a01b0381168252600160a01b90046001600160601b031660208201525b6020810151600090612710906106ce906001600160601b031687611cfd565b6106d89190611d32565b915196919550909350505050565b60006106f1836108a1565b82106107535760405162461bcd60e51b815260206004820152602b60248201527f455243373231456e756d657261626c653a206f776e657220696e646578206f7560448201526a74206f6620626f756e647360a81b60648201526084016103b5565b506001600160a01b03919091166000908152600660209081526040808320938352929052205490565b610604838383604051806020016040528060008152506109e2565b60006107a260085490565b82106108055760405162461bcd60e51b815260206004820152602c60248201527f455243373231456e756d657261626c653a20676c6f62616c20696e646578206f60448201526b7574206f6620626f756e647360a01b60648201526084016103b5565b6008828154811061081857610818611d46565b90600052602060002001549050919050565b6000818152600260205260408120546001600160a01b0316806103855760405162461bcd60e51b815260206004820152602960248201527f4552433732313a206f776e657220717565727920666f72206e6f6e657869737460448201526832b73a103a37b5b2b760b91b60648201526084016103b5565b60006001600160a01b03821661090c5760405162461bcd60e51b815260206004820152602a60248201527f4552433732313a2062616c616e636520717565727920666f7220746865207a65604482015269726f206164647265737360b01b60648201526084016103b5565b506001600160a01b031660009081526003602052604090205490565b600c546001600160a01b031633146109525760405162461bcd60e51b81526004016103b590611c26565b61095c6000611059565b565b600c546001600160a01b031633146109885760405162461bcd60e51b81526004016103b590611c26565b610604600d838361180c565b6060600180546103db90611c5b565b600c546001600160a01b031633146109cd5760405162461bcd60e51b81526004016103b590611c26565b6103c882826110ab565b6103c83383836110c5565b6109ec3383610dbb565b610a085760405162461bcd60e51b81526004016103b590611c96565b610a1484848484611194565b50505050565b6000818152600260205260409020546060906001600160a01b0316610a995760405162461bcd60e51b815260206004820152602f60248201527f4552433732314d657461646174613a2055524920717565727920666f72206e6f60448201526e3732bc34b9ba32b73a103a37b5b2b760891b60648201526084016103b5565b6000610ab060408051602081019091526000815290565b90506000815111610ad05760405180602001604052806000815250610afb565b80610ada846111c7565b604051602001610aeb929190611d5c565b6040516020818303038152906040525b9392505050565b600d8054610b0f90611c5b565b80601f0160208091040260200160405190810160405280929190818152602001828054610b3b90611c5b565b8015610b885780601f10610b5d57610100808354040283529160200191610b88565b820191906000526020600020905b815481529060010190602001808311610b6b57829003601f168201915b505050505081565b600c546001600160a01b03163314610bba5760405162461bcd60e51b81526004016103b590611c26565b6001600160a01b038116610c1f5760405162461bcd60e51b815260206004820152602660248201527f4f776e61626c653a206e6577206f776e657220697320746865207a65726f206160448201526564647265737360d01b60648201526084016103b5565b610c2881611059565b50565b60006001600160e01b0319821663152a902d60e11b14806103855750610385826112c5565b6127106001600160601b0382161115610cbe5760405162461bcd60e51b815260206004820152602a60248201527f455243323938313a20726f79616c7479206665652077696c6c206578636565646044820152692073616c65507269636560b01b60648201526084016103b5565b6001600160a01b038216610d145760405162461bcd60e51b815260206004820152601960248201527f455243323938313a20696e76616c69642072656365697665720000000000000060448201526064016103b5565b604080518082019091526001600160a01b039092168083526001600160601b039091166020909201829052600160a01b90910217600a55565b600081815260046020526040902080546001600160a01b0319166001600160a01b0384169081179091558190610d828261082a565b6001600160a01b03167f8c5be1e5ebec7d5bd14f71427d1e84f3dd0314c0f7b2291e5b200ac8c7c3b92560405160405180910390a45050565b6000818152600260205260408120546001600160a01b0316610e345760405162461bcd60e51b815260206004820152602c60248201527f4552433732313a206f70657261746f7220717565727920666f72206e6f6e657860448201526b34b9ba32b73a103a37b5b2b760a11b60648201526084016103b5565b6000610e3f8361082a565b9050806001600160a01b0316846001600160a01b03161480610e8657506001600160a01b0380821660009081526005602090815260408083209388168352929052205460ff165b80610eaa5750836001600160a01b0316610e9f8461045e565b6001600160a01b0316145b949350505050565b826001600160a01b0316610ec58261082a565b6001600160a01b031614610f295760405162461bcd60e51b815260206004820152602560248201527f4552433732313a207472616e736665722066726f6d20696e636f72726563742060448201526437bbb732b960d91b60648201526084016103b5565b6001600160a01b038216610f8b5760405162461bcd60e51b8152602060048201526024808201527f4552433732313a207472616e7366657220746f20746865207a65726f206164646044820152637265737360e01b60648201526084016103b5565b610f968383836112ea565b610fa1600082610d4d565b6001600160a01b0383166000908152600360205260408120805460019290610fca908490611d8b565b90915550506001600160a01b0382166000908152600360205260408120805460019290610ff8908490611da2565b909155505060008181526002602052604080822080546001600160a01b0319166001600160a01b0386811691821790925591518493918716917fddf252ad1be2c89b69c2b068fc378daa952ba7f163c4a11628f55a4df523b3ef91a4505050565b600c80546001600160a01b038381166001600160a01b0319831681179093556040519116919082907f8be0079c531659141344cd1fd0a4f28419497f9722a3daafe3b4186f6b6457e090600090a35050565b6103c88282604051806020016040528060008152506112f5565b816001600160a01b0316836001600160a01b031614156111275760405162461bcd60e51b815260206004820152601960248201527f4552433732313a20617070726f766520746f2063616c6c65720000000000000060448201526064016103b5565b6001600160a01b03838116600081815260056020908152604080832094871680845294825291829020805460ff191686151590811790915591519182527f17307eab39ab6107e8899845ad3d59bd9653f200f220920489ca2b5937696c31910160405180910390a3505050565b61119f848484610eb2565b6111ab84848484611328565b610a145760405162461bcd60e51b81526004016103b590611dba565b6060816111eb5750506040805180820190915260018152600360fc1b602082015290565b8160005b811561121557806111ff81611e0c565b915061120e9050600a83611d32565b91506111ef565b60008167ffffffffffffffff81111561123057611230611b01565b6040519080825280601f01601f19166020018201604052801561125a576020820181803683370190505b5090505b8415610eaa5761126f600183611d8b565b915061127c600a86611e27565b611287906030611da2565b60f81b81838151811061129c5761129c611d46565b60200101906001600160f81b031916908160001a9053506112be600a86611d32565b945061125e565b60006001600160e01b0319821663780e9d6360e01b1480610385575061038582611426565b610604838383611476565b6112ff838361152e565b61130c6000848484611328565b6106045760405162461bcd60e51b81526004016103b590611dba565b60006001600160a01b0384163b1561141b57604051630a85bd0160e11b81526001600160a01b0385169063150b7a029061136c903390899088908890600401611e3b565b6020604051808303816000875af19250505080156113a7575060408051601f3d908101601f191682019092526113a491810190611e78565b60015b611401573d8080156113d5576040519150601f19603f3d011682016040523d82523d6000602084013e6113da565b606091505b5080516113f95760405162461bcd60e51b81526004016103b590611dba565b805181602001fd5b6001600160e01b031916630a85bd0160e11b149050610eaa565b506001949350505050565b60006001600160e01b031982166380ac58cd60e01b148061145757506001600160e01b03198216635b5e139f60e01b145b8061038557506301ffc9a760e01b6001600160e01b0319831614610385565b6001600160a01b0383166114d1576114cc81600880546000838152600960205260408120829055600182018355919091527ff3f7a9fe364faab93b216da50a3214154f22a0a2b415b23a84c8169e8b636ee30155565b6114f4565b816001600160a01b0316836001600160a01b0316146114f4576114f4838261167c565b6001600160a01b03821661150b5761060481611719565b826001600160a01b0316826001600160a01b0316146106045761060482826117c8565b6001600160a01b0382166115845760405162461bcd60e51b815260206004820181905260248201527f4552433732313a206d696e7420746f20746865207a65726f206164647265737360448201526064016103b5565b6000818152600260205260409020546001600160a01b0316156115e95760405162461bcd60e51b815260206004820152601c60248201527f4552433732313a20746f6b656e20616c7265616479206d696e7465640000000060448201526064016103b5565b6115f5600083836112ea565b6001600160a01b038216600090815260036020526040812080546001929061161e908490611da2565b909155505060008181526002602052604080822080546001600160a01b0319166001600160a01b03861690811790915590518392907fddf252ad1be2c89b69c2b068fc378daa952ba7f163c4a11628f55a4df523b3ef908290a45050565b60006001611689846108a1565b6116939190611d8b565b6000838152600760205260409020549091508082146116e6576001600160a01b03841660009081526006602090815260408083208584528252808320548484528184208190558352600790915290208190555b5060009182526007602090815260408084208490556001600160a01b039094168352600681528383209183525290812055565b60085460009061172b90600190611d8b565b6000838152600960205260408120546008805493945090928490811061175357611753611d46565b90600052602060002001549050806008838154811061177457611774611d46565b60009182526020808320909101929092558281526009909152604080822084905585825281205560088054806117ac576117ac611e95565b6001900381819060005260206000200160009055905550505050565b60006117d3836108a1565b6001600160a01b039093166000908152600660209081526040808320868452825280832085905593825260079052919091209190915550565b82805461181890611c5b565b90600052602060002090601f01602090048101928261183a5760008555611880565b82601f106118535782800160ff19823516178555611880565b82800160010185558215611880579182015b82811115611880578235825591602001919060010190611865565b5061188c929150611890565b5090565b5b8082111561188c5760008155600101611891565b6001600160e01b031981168114610c2857600080fd5b6000602082840312156118cd57600080fd5b8135610afb816118a5565b80356001600160a01b03811681146118ef57600080fd5b919050565b6000806040838503121561190757600080fd5b611910836118d8565b915060208301356001600160601b038116811461192c57600080fd5b809150509250929050565b60005b8381101561195257818101518382015260200161193a565b83811115610a145750506000910152565b6000815180845261197b816020860160208601611937565b601f01601f19169290920160200192915050565b602081526000610afb6020830184611963565b6000602082840312156119b457600080fd5b5035919050565b600080604083850312156119ce57600080fd5b6119d7836118d8565b946020939093013593505050565b6000806000606084860312156119fa57600080fd5b611a03846118d8565b9250611a11602085016118d8565b9150604084013590509250925092565b60008060408385031215611a3457600080fd5b50508035926020909101359150565b600060208284031215611a5557600080fd5b610afb826118d8565b60008060208385031215611a7157600080fd5b823567ffffffffffffffff80821115611a8957600080fd5b818501915085601f830112611a9d57600080fd5b813581811115611aac57600080fd5b866020828501011115611abe57600080fd5b60209290920196919550909350505050565b60008060408385031215611ae357600080fd5b611aec836118d8565b91506020830135801515811461192c57600080fd5b634e487b7160e01b600052604160045260246000fd5b60008060008060808587031215611b2d57600080fd5b611b36856118d8565b9350611b44602086016118d8565b925060408501359150606085013567ffffffffffffffff80821115611b6857600080fd5b818701915087601f830112611b7c57600080fd5b813581811115611b8e57611b8e611b01565b604051601f8201601f19908116603f01168101908382118183101715611bb657611bb6611b01565b816040528281528a6020848701011115611bcf57600080fd5b82602086016020830137600060208483010152809550505050505092959194509250565b60008060408385031215611c0657600080fd5b611c0f836118d8565b9150611c1d602084016118d8565b90509250929050565b6020808252818101527f4f776e61626c653a2063616c6c6572206973206e6f7420746865206f776e6572604082015260600190565b600181811c90821680611c6f57607f821691505b60208210811415611c9057634e487b7160e01b600052602260045260246000fd5b50919050565b60208082526031908201527f4552433732313a207472616e736665722063616c6c6572206973206e6f74206f6040820152701ddb995c881b9bdc88185c1c1c9bdd9959607a1b606082015260800190565b634e487b7160e01b600052601160045260246000fd5b6000816000190483118215151615611d1757611d17611ce7565b500290565b634e487b7160e01b600052601260045260246000fd5b600082611d4157611d41611d1c565b500490565b634e487b7160e01b600052603260045260246000fd5b60008351611d6e818460208801611937565b835190830190611d82818360208801611937565b01949350505050565b600082821015611d9d57611d9d611ce7565b500390565b60008219821115611db557611db5611ce7565b500190565b60208082526032908201527f4552433732313a207472616e7366657220746f206e6f6e20455243373231526560408201527131b2b4bb32b91034b6b83632b6b2b73a32b960711b606082015260800190565b6000600019821415611e2057611e20611ce7565b5060010190565b600082611e3657611e36611d1c565b500690565b6001600160a01b0385811682528416602082015260408101839052608060608201819052600090611e6e90830184611963565b9695505050505050565b600060208284031215611e8a57600080fd5b8151610afb816118a5565b634e487b7160e01b600052603160045260246000fdfea26469706673582212202444af5e646c056a37b16556a312821c207db8e0ebdb3dc4e38948666607d15a64736f6c634300080c0033",
  "linkReferences": {},
  "deployedLinkReferences": {}
}